:020000040800F2
:1000000000A00020BD3300089132000893320008A0
:10001000953200089732000899320008000000006D
:100020000000000000000000000000009B320008FB
:100030009D320008000000009F320008A132000835
:100040000D3400080D3400080D3400080D3400088C
:100050000D3400080D3400080D3400080D3400087C
:100060000D3400080D3400080D3400080D3400086C
:100070000D3400080D3400080D3400080D3400085C
:100080000D3400080D3400080D3400080D3400084C
:100090000D3400080D3400080D3400080D3400083C
:1000A0000D3400080D3400080D3400080D3400082C
:1000B0000D3400080D3400080D3400080D3400081C
:1000C0000D3400080D3400080D3400080D3400080C
:1000D0000D3400080D3400080D3400080D340008FC
:1000E0000D3400080D3400080D3400080D340008EC
:1000F0000D3400080D3400080D3400080D340008DC
:100100000000000000000000000000000D340008A6
:100110000D3400080D340008AD3200080D3400081D
:100120000D3400080D3400080D3400080D340008AB
:100130000D3400080D34000800000000000000002D
:100140000D3400080D3400080D34000800000000D4
:10015000000000000000000000000000000000009F
:1001600000000000000000000D3400080D340008FD
:100170000D34000800000000000000000000000036
:08018000000000000D3400082E
:1001900010B5054C237833B9044B13B10448AFF3C1
:1001A00000800123237010BDE0010020000000004A
:1001B000B86F000808B5034B1BB103490348AFF300
:1001C000008008BD00000000E4010020B86F0008B6
:1001D000034613F8012B002AFBD1181A0138704787
:1001E00001F0FF01102A2BDB10F0070F08D010F8E8
:1001F000013B013A8B422DD010F0070F42B3F6D1EC
:10020000F0B441EA012141EA014122F007047FF004
:1002100000070023F0E80256083C85EA010586EA5B
:10022000010685FA47F5A3FA87F586FA47F6A5FA97
:1002300087F68EB9EED1F0BC01F0FF0102F00702A3
:1002400032B110F8013B013A83EA010313B1F8D14E
:100250000020704701387047002D06BF354603382F
:10026000073815F0010F07D1013015F4807F02BF68
:10027000013015F4C03F0130F0BC0138704700BFB9
:1002800081F0004102E000BF83F0004330B54FEA47
:1002900041044FEA430594EA050F08BF90EA020FB4
:1002A0001FBF54EA000C55EA020C7FEA645C7FEA47
:1002B000655C00F0E2804FEA5454D4EB5555B8BF6A
:1002C0006D420CDD2C4480EA020281EA030382EADB
:1002D000000083EA010180EA020281EA0303362D6D
:1002E00088BF30BD11F0004F4FEA01314FF4801C40
:1002F0004CEA113102D0404261EB410113F0004F52
:100300004FEA03334CEA133302D0524263EB430308
:1003100094EA050F00F0A780A4F10104D5F1200EA6
:100320000DDB02FA0EFC22FA05F2801841F1000101
:1003300003FA0EF2801843FA05F359410EE0A5F1D5
:1003400020050EF1200E012A03FA0EFC28BF4CF006
:10035000020C43FA05F3C01851EBE37101F00045BC
:1003600007D54FF0000EDCF1000C7EEB00006EEBC9
:100370000101B1F5801F1BD3B1F5001F0CD3490853
:100380005FEA30004FEA3C0C04F101044FEA4452AA
:1003900012F5800F80F09A80BCF1004F08BF5FEA31
:1003A000500C50F1000041EB045141EA050130BD11
:1003B0005FEA4C0C404141EB010111F4801FA4F1B4
:1003C0000104E9D191F0000F04BF01460020B1FA09
:1003D00081F308BF2033A3F10B03B3F120020CDA41
:1003E0000C3208DD02F1140CC2F10C0201FA0CF01F
:1003F00021FA02F10CE002F11402D8BFC2F1200C84
:1004000001FA02F120FA0CFCDCBF41EA0C01904039
:10041000E41AA2BF01EB0451294330BD6FEA040482
:100420001F3C1CDA0C340EDC04F11404C4F120026D
:1004300020FA04F001FA02F340EA030021FA04F37F
:1004400045EA030130BDC4F10C04C4F1200220FAD6
:1004500002F001FA04F340EA0300294630BD21FA14
:1004600004F0294630BD94F0000F83F4801306BFDA
:1004700081F480110134013D4EE77FEA645C18BFCE
:100480007FEA655C29D094EA050F08BF90EA020F65
:1004900005D054EA000C04BF1946104630BD91EA5D
:1004A000030F1EBF0021002030BD5FEA545C05D160
:1004B0004000494128BF41F0004130BD14F580049F
:1004C0003CBF01F5801130BD01F0004545F0FE4113
:1004D00041F470014FF0000030BD7FEA645C1ABF48
:1004E000194610467FEA655C1CBF0B46024650EA7F
:1004F000013406BF52EA033591EA030F41F40021AB
:1005000030BD00BF90F0000F04BF0021704730B530
:100510004FF4806404F132044FF000054FF0000105
:1005200050E700BF90F0000F04BF0021704730B5C6
:100530004FF4806404F1320410F0004548BF40429B
:100540004FF000013EE700BF42004FEAE2014FEAF0
:1005500031014FEA02701FBF12F07F4393F07F4FCB
:1005600081F06051704732F07F4208BF704793F0CE
:100570007F4F04BF41F40021704730B54FF46074E1
:1005800001F0004521F000411CE700BF50EA0102E4
:1005900008BF704730B54FF000050AE050EA01028D
:1005A00008BF704730B511F0004502D5404261EBFD
:1005B00041014FF4806404F132045FEA915C3FF43E
:1005C000D8AE4FF003025FEADC0C18BF03325FEADB
:1005D000DC0C18BF033202EBDC02C2F1200300FA8C
:1005E00003FC20FA02F001FA03FE40EA0E0021FAB1
:1005F00002F11444BDE600BF70B54FF0FF0C4CF49F
:10060000E06C1CEA11541DBF1CEA135594EA0C0F50
:1006100095EA0C0F00F0DEF82C4481EA030621EA8B
:100620004C5123EA4C5350EA013518BF52EA0335C6
:1006300041F4801143F4801338D0A0FB02CE4FF078
:100640000005E1FB02E506F00042E0FB03E54FF0A8
:100650000006E1FB03569CF0000F18BF4EF0010EA0
:10066000A4F1FF04B6F5007F64F5407404D25FEA9C
:100670004E0E6D4146EB060642EAC62141EA55514F
:100680004FEAC52040EA5E504FEACE2EB4F1FD0C91
:1006900088BFBCF5E06F1ED8BEF1004F08BF5FEA0F
:1006A000500E50F1000041EB045170BD06F00046C1
:1006B00046EA010140EA020081EA0301B4EB5C046E
:1006C000C2BFD4EB0C0541EA045170BD41F4801166
:1006D0004FF0000E013C00F3AB8014F1360FDEBF8B
:1006E000002001F0004170BDC4F10004203C35DA67
:1006F0000C341BDC04F11404C4F1200500FA05F3EA
:1007000020FA04F001FA05F240EA020001F000428A
:1007100021F0004110EBD37021FA04F642EB060100
:100720005EEA430E08BF20EAD37070BDC4F10C042A
:10073000C4F1200500FA04F320FA05F001FA04F2EE
:1007400040EA020001F0004110EBD37041F10001DA
:100750005EEA430E08BF20EAD37070BDC4F12005E5
:1007600000FA05F24EEA020E20FA04F301FA05F24D
:1007700043EA020321FA04F001F0004121FA04F2F5
:1007800020EA020000EBD3705EEA430E08BF20EAC5
:10079000D37070BD94F0000F0FD101F000464000FF
:1007A00041EB010111F4801F08BF013CF7D041EA81
:1007B000060195F0000F18BF704703F00046520085
:1007C00043EB030313F4801F08BF013DF7D043EA56
:1007D0000603704794EA0C0F0CEA135518BF95EA0C
:1007E0000C0F0CD050EA410618BF52EA4306D1D193
:1007F00081EA030101F000414FF0000070BD50EAB2
:10080000410606BF1046194652EA430619D094EA3B
:100810000C0F02D150EA013613D195EA0C0F05D125
:1008200052EA03361CBF104619460AD181EA030179
:1008300001F0004141F0FE4141F470014FF0000031
:1008400070BD41F0FE4141F4780170BD70B54FF0CC
:10085000FF0C4CF4E06C1CEA11541DBF1CEA13554C
:1008600094EA0C0F95EA0C0F00F0A7F8A4EB05042E
:1008700081EA030E52EA03354FEA013100F0888025
:100880004FEA03334FF0805545EA131343EA1263EE
:100890004FEA022245EA111545EA10654FEA0026A3
:1008A0000EF000419D4208BF964244F1FD0404F55C
:1008B000407402D25B084FEA3202B61A65EB0305B8
:1008C0005B084FEA32024FF480104FF4002CB6EB75
:1008D000020E75EB030E22BFB61A754640EA0C00F5
:1008E0005B084FEA3202B6EB020E75EB030E22BF35
:1008F000B61A754640EA5C005B084FEA3202B6EB76
:10090000020E75EB030E22BFB61A754640EA9C0034
:100910005B084FEA3202B6EB020E75EB030E22BF04
:10092000B61A754640EADC0055EA060E18D04FEAC2
:10093000051545EA16754FEA06164FEAC30343EA62
:1009400052734FEAC2025FEA1C1CC0D111F4801F2F
:100950000BD141EA00014FF000004FF0004CB6E728
:1009600011F4801F04BF01430020B4F1FD0C88BFC7
:10097000BCF5E06F3FF6AFAEB5EB030C04BFB6EBD2
:10098000020C5FEA500C50F1000041EB045170BDC5
:100990000EF0004E4EEA113114EB5C04C2BFD4EBF2
:1009A0000C0541EA045170BD41F480114FF0000E76
:1009B000013C90E645EA060E8DE60CEA135594EAF2
:1009C0000C0F08BF95EA0C0F3FF43BAF94EA0C0FF5
:1009D0000AD150EA01347FF434AF95EA0C0F7FF46A
:1009E00025AF104619462CE795EA0C0F06D152EABE
:1009F00003353FF4FDAE1046194622E750EA4106A2
:100A000018BF52EA43067FF4C5AE50EA41047FF4B2
:100A10000DAF52EA43057FF4EBAE12E74FF0FF3C17
:100A200006E000BF4FF0010C02E000BF4FF0010CE8
:100A30004DF804CD4FEA410C7FEA6C5C4FEA430C61
:100A400018BF7FEA6C5C1BD001B050EA410C0CBFB0
:100A500052EA430C91EA030F02BF90EA020F002012
:100A6000704710F1000F91EA030F58BF994208BF79
:100A700090422CBFD8176FEAE37040F00100704736
:100A80004FEA410C7FEA6C5C02D150EA013C07D18D
:100A90004FEA430C7FEA6C5CD6D152EA033CD3D0D8
:100AA0005DF8040B704700BF8446104662468C46D2
:100AB0001946634600E000BF01B5FFF7B7FF002805
:100AC00048BF10F1000F01BD4DF808EDFFF7F4FF2E
:100AD0000CBF012000205DF808FB00BF4DF808EDB9
:100AE000FFF7EAFF34BF012000205DF808FB00BFDC
:100AF0004DF808EDFFF7E0FF94BF012000205DF8FE
:100B000008FB00BF4DF808EDFFF7CEFF94BF0120B2
:100B100000205DF808FB00BF4DF808EDFFF7C4FFAB
:100B200034BF012000205DF808FB00BF4FEA410CF4
:100B30007FEA6C5C02D150EA013C0AD14FEA430CD7
:100B40007FEA6C5C02D152EA033C02D14FF0000014
:100B500070474FF0010070474FEA410212F5001252
:100B600015D211D56FF47873B3EB625212D94FEAF4
:100B7000C12343F0004343EA505311F0004F23FADE
:100B800002F018BF404270474FF00000704750EA33
:100B9000013005D111F0004008BF6FF000407047F0
:100BA0004FF00000704700BF4A0011D212F500124A
:100BB00011D20DD56FF47873B3EB62520ED44FEAB5
:100BC000C12343F0004343EA505323FA02F0704735
:100BD0004FF00000704750EA013002D14FF0FF3073
:100BE00070474FF0000070474FEA4102B2F1E04316
:100BF00024BFB3F5001CDCF1FE5C0DD901F0004C04
:100C00004FEAC0024CEA5070B2F1004F40EB830053
:100C100008BF20F00100704711F0804F21D113F17F
:100C20003872BCBF01F00040704741F480114FEAB8
:100C30005252C2F11802C2F1200C10FA0CF320FA41
:100C400002F018BF40F001004FEAC1234FEAD3235E
:100C500003FA0CFC40EA0C0023FA02F34FEA4303C8
:100C6000CCE77FEA625307D150EA01331EBF4FF051
:100C7000FE4040F44000704701F0004040F0FE406C
:100C800040F40000704700BF10B504460E4B1878C2
:100C90004FF47A73B3FBF0F30C4A1068B0FBF3F037
:100CA00000F0C8F868B90F2C01D901200AE0002231
:100CB00021464FF0FF3000F061F8034B5C600020EC
:100CC00000E0012010BD00BF00000020080000204F
:100CD00008B5074A136843F010031360032000F0BF
:100CE0002FF80020FFF7D0FF02F08AFA002008BD9D
:100CF00000200240034A1168034B1B780B44136029
:100D0000704700BF0C02002000000020014B186853
:100D1000704700BF0C02002038B50446FFF7F6FF0D
:100D20000546B4F1FF3F02D0044B1B781C44FFF78B
:100D3000EDFF401BA042FAD338BD00BF00000020E9
:100D400010B50446C31E042B0FD80A4AD36823F4F7
:100D5000E0631B041B0C240204F4E064234343F00F
:100D6000BF6343F40033D36010BDBC21024802F0DE
:100D7000F3F9EAE700ED00E01876000870B50546E3
:100D80000C4616460F2A25D80F2C28D81B4BDB689B
:100D9000C3F30223C3F10702042A28BF0422191D4A
:100DA000062921D9033B4FF0FF3101FA02F224EA70
:100DB00002049C4001FA03F326EA03063443002DA3
:100DC00014DB2401E4B205F1604505F5614585F8C1
:100DD000004370BDD4210A4802F0BEF9D4E7D52102
:100DE000074802F0B9F9D1E70023DCE705F00F0569
:100DF0002401E4B2034B5C55EBE700BF00ED00E0DB
:100E00001876000814ED00E010B5041E08DB04F0AD
:100E10001F02640901239340044A42F8243010BDA4
:100E2000E821034802F098F9F1E700BF00E100E093
:100E3000187600080138B0F1807F0AD2064B58605E
:100E4000064AF02182F823100020986007221A60D9
:100E500070470120704700BF10E000E000ED00E0A7
:100E600010B50446042800D038B9042C0BD0094A28
:100E7000136823F00403136010BD40F2E11106482B
:100E800002F06AF9F1E7034A136843F004031360C0
:100E9000F2E700BF10E000E018760008704708B5E0
:100EA000FFF7FCFF08BD00002DE9F04782B00646C1
:100EB0000C46B0F1904F16D0A44B984213D003F5D6
:100EC000806398420FD003F5806398420BD003F5FE
:100ED0008063984207D003F58063984203D0C32112
:100EE0009B4802F039F923689AB212B11B0C1B041B
:100EF0001BB1C421964802F02FF96368012B1ED95B
:100F0000112B1CD0022B1AD0122B18D0914A9342CD
:100F100015D002F58012934211D002F5801293424F
:100F20000DD0A2F5F812934209D002F58012934237
:100F300005D002F58012934201D0032B04D1A3689F
:100F4000022B06D800254AE0C521814802F004F9A9
:100F5000F5E7C6217E4802F0FFF8F3E7D6217C488A
:100F600002F0FAF86DE0EA21794802F0F5F898E02D
:100F7000042300E000238B4003430232764941F80A
:100F80002230764B1A68FB4303EA0201606810F4D2
:100F9000803F01D047EA0201704A1160526803EABB
:100FA0000201606810F4003F01D047EA02016B4A79
:100FB0005160926803EA0201606810F4801F01D05A
:100FC00047EA0201654A9160D2681340616811F4F2
:100FD000001F01D047EA0203604AD3600135276849
:100FE00037FA05F300F0AF804FF0010808FA05F872
:100FF00018EA0707F2D06368022B01D0122B30D118
:10100000B6F1904F16D0514B9E4213D003F580633A
:101010009E420FD003F580639E420BD003F58063A0
:101020009E4207D003F580639E4203D0D5214848F5
:1010300002F092F823690C2B03D90E2B01D00F2B51
:101040008CD1EA08083256F8220005F0070399000F
:101050000F238B4020EA030023698B40034346F8AB
:10106000223032684FEA450A4FF0030909FA0AF9BB
:101070006FEA090909EA0202636803F0030303FA4D
:101080000AF31343336063685A1E012A03D9112BF4
:1010900001D0122B17D1E368012B02D9032B7FF467
:1010A00062AFB26809EA0202E36803FA0AF3134383
:1010B000B360736823EA08086368C3F30013AB40A6
:1010C00043EA08037360F36809EA0309A36803FAB3
:1010D0000AF343EA0903F360636813F0805F3FF4A7
:1010E0007DAF1F4B9A6942F001029A619B6903F040
:1010F00001030193019BAA08911C174B53F821008F
:1011000005F0030399000F238B4020EA0300B6F19A
:10111000904F3FF42FAF0D4B9E420ED003F58063EE
:101120009E420CD003F580639E420AD003F5806393
:101130009E423FF41DAF05231DE701231BE7022359
:1011400019E7032317E702B0BDE8F0870004004861
:101150005476000800001110000001400004014016
:101160000010024038B505460C4621B12B691C42DF
:1011700007D1002038BD4FF4C871034801F0ECFFDF
:10118000F4E70120F6E700BF5476000870B5054685
:1011900014460E4621B1012C08D86CB9AE6270BD60
:1011A0004FF4D871054801F0D7FFF4E740F2B111D0
:1011B000024801F0D1FFF0E7AE61F0E75476000895
:1011C000002800F08A8370B582B00446036813B12A
:1011D00013F00F0F2BD0236813F0010F4FD063686B
:1011E0002BB1B3F5803F02D0B3F5A02F25D1B44B7E
:1011F0005B6803F00C03042B2AD0B14B5B6803F04F
:101200000C03082B1FD06368B3F5803F7CD0002B04
:1012100040F0A68003F1804303F504331A6822F4FA
:1012200080321A601A6822F480221A6071E040F25B
:101230005711A44801F090FFCDE740F25D11A1489D
:1012400001F08AFFD3E79E4B5B6813F4803FDAD04E
:101250004FF4003393FAA3F3994B19684FF400331A
:1012600093FAA3F3B3FA83F303F01F03012202FA04
:1012700003F30B4203D06368002B00F03083236834
:1012800013F0020F00F0DA802369012B00F2A08036
:1012900063691F2B00F2A280894B5B6813F00C0F6F
:1012A00000F0A880864B5B6803F00C03082B00F06D
:1012B0009B802369002B00F00981012292FAA2F39E
:1012C000B3FA83F303F1845303F584139B001A608C
:1012D000FFF71CFD0546022393FAA3F3784B196828
:1012E000022393FAA3F3B3FA83F303F01F0301225B
:1012F00002FA03F30B4240F0D380FFF707FD401BD7
:101300000228E8D90320F1E26D4A136843F48033E0
:1013100013606B4AD36A23F00F03A1680B43D362B7
:101320006368002B36D0FFF7F1FC05464FF400331D
:1013300093FAA3F3624B19684FF4003393FAA3F3C3
:10134000B3FA83F303F01F03012202FA03F30B4203
:1013500095D1FFF7DBFC401B6428E7D90320C5E2E9
:10136000B3F5A02F09D0564B1A6822F480321A60C8
:101370001A6822F480221A60CBE703F18043A3F5B8
:101380003C331A6842F480221A601A6842F48032B0
:101390001A60BEE7FFF7BAFC05464FF4003393FA34
:1013A000A3F3474B19684FF4003393FAA3F3B3FA4E
:1013B00083F303F01F03012202FA03F30B423FF40D
:1013C0005EAFFFF7A3FC401B6428E6D903208DE243
:1013D00040F295113B4801F0BFFE59E74FF4CB7145
:1013E000384801F0B9FE57E7354B5B6813F4803F8E
:1013F0007FF45FAF022393FAA3F3314B1968022302
:1014000093FAA3F3B3FA83F303F01F03012202FA62
:1014100003F30B4204D02369934201D0012065E21B
:101420002748036823F0F8036169F82292FAA2F2D0
:10143000B2FA82F201FA02F213430360236813F056
:10144000080F00F09880A369012B66D8A369002BD0
:1014500069D0012191FAA1F2B2FA82F21A4B134437
:101460009B001960FFF752FC0546022393FAA3F292
:1014700093FAA3F293FAA3F2114A516A93FAA3F3EF
:10148000B3FA83F303F01F03012202FA03F30B42C2
:1014900071D1FFF73BFC401B0228E6D9032025E26F
:1014A0000748036823F0F8036169F82292FAA2F270
:1014B000B2FA82F201FA02F213430360BEE700BF00
:1014C000001002409076000820819010012393FACA
:1014D000A3F3B3FA83F303F1845303F584139B005E
:1014E00000221A60FFF712FC0546022393FAA3F3C9
:1014F000B94B1968022393FAA3F3B3FA83F303F009
:101500001F03012202FA03F30B4297D0FFF7FEFB01
:10151000401B0228E9D90320E8E14FF4EB71AF4802
:1015200001F01AFE92E7012292FAA2F2B2FA82F2D6
:10153000AB4B13449B0000221A60FFF7E7FB054604
:10154000022393FAA3F293FAA3F293FAA3F2A24A24
:10155000516A93FAA3F3B3FA83F303F01F03012252
:1015600002FA03F30B4206D0FFF7D0FB401B022820
:10157000E6D90320BAE1236813F0040F00F0C0801D
:10158000E368012B01D9052B26D1934BDB6913F0BE
:10159000805F27D1904BDA6942F08052DA61DB69D3
:1015A00003F080530193019B01258E4B1B6813F4BC
:1015B000807F19D0E368012B2AD0002B34D103F1AE
:1015C000804303F504331A6A22F001021A621A6A90
:1015D00022F004021A6220E040F202217F4801F06A
:1015E000BBFDD2E70025E0E77E4A136843F4807331
:1015F0001360FFF78BFB06467A4B1B6813F4807F62
:10160000D8D1FFF783FB801B6428F5D903206DE157
:10161000714A136A43F001031362E368002B41D05F
:10162000FFF774FB06462BE0052B09D06A4B1A6ABC
:1016300022F001021A621A6A22F004021A62ECE72E
:10164000654B1A6A42F004021A621A6A42F00102F9
:101650001A62E2E7604B196A022393FAA3F3B3FA22
:1016600083F303F01F03012202FA03F3194245D169
:10167000FFF74CFB801B41F28833984200F2318126
:10168000022393FAA3F293FAA3F3B3FA83F35B0969
:1016900043F00203022BDDD0022393FAA3F34E4B57
:1016A000596AD9E7FFF732FB064615E04A4B196A3B
:1016B000022393FAA3F3B3FA83F303F01F03012287
:1016C00002FA03F3194219D0FFF720FB801B41F205
:1016D0008833984200F20781022393FAA3F293FA27
:1016E000A3F3B3FA83F35B0943F00203022BDDD0CB
:1016F000022393FAA3F3384B596AD9E7002D73D12B
:10170000E369022B76D8E369002B00F0EE80324AC1
:10171000526802F00C02082A00F0EA80022B40F026
:10172000B080236A13B1B3F5803F69D1636A4BB3CC
:10173000B3F5802F26D0B3F5002F23D0B3F5402F7B
:1017400020D0B3F5801F1DD0B3F5A01F1AD0B3F57C
:10175000C01F17D0B3F5E01F14D0B3F5001F11D090
:10176000B3F5101F0ED0B3F5201F0BD0B3F5301F0B
:1017700008D0B3F5401F05D0B3F5501F02D0B3F524
:10178000601F43D14FF0807393FAA3F3B3FA83F34E
:1017900003F1845303F584139B0000221A60FFF7C2
:1017A000B5FA05464FF0007393FAA3F30A4B196894
:1017B0004FF0007393FAA3F3B3FA83F303F01F031C
:1017C000012202FA03F3194226D0FFF79FFA401BC9
:1017D0000228E7D9032089E0001002409076000833
:1017E0002081901000700040424AD36923F080535A
:1017F000D36185E740F246213F4801F0ADFC82E726
:1018000040F24F213C4801F0A7FC8FE74FF41471E0
:10181000394801F0A1FCB5E736494B6823F474134D
:10182000626A206A024313434B604FF0807393FA5D
:10183000A3F3B3FA83F303F1845303F584139B00FA
:1018400001221A60FFF762FA04464FF0007393FA20
:10185000A3F3284B19684FF0007393FAA3F3B3FA7C
:1018600083F303F01F03012202FA03F3194206D1A6
:10187000FFF74CFA001B0228E7D9032036E00020CE
:1018800034E04FF0807393FAA3F3B3FA83F303F1D8
:10189000845303F584139B0000221A60FFF736FA85
:1018A00004464FF0007393FAA3F3124B19684FF0FC
:1018B000007393FAA3F3B3FA83F303F01F03012237
:1018C00002FA03F3194206D0FFF720FA001B0228A0
:1018D000E7D903200AE0002008E00120704701203A
:1018E00004E0032002E0032000E0002002B070BD0D
:1018F0000120FBE7001002409076000810B4174B5F
:101900005C6804F00C03082B26D104F470124FF429
:10191000701393FAA3F3B3FA83F322FA03F3104993
:10192000C85C0E4BDB6A03F00F030F2292FAA2F29F
:10193000B2FA82F2D3400B441A7C14F4803F05D1F2
:10194000084B03FB00F05DF8044B7047064BB3FBFC
:10195000F2F300FB03F0F6E70348F4E7001002405F
:10196000D06F000800093D0000127A00002800F046
:101970001B8170B504460D46036813F00F0F14D099
:10198000022D18D88A4B1B6803F00703AB4218D20C
:10199000874A136823F007032B431360136803F08F
:1019A0000703AB420DD0012070BD40F2BA2181483F
:1019B00001F0D2FBE4E740F2BB217E4801F0CCFB12
:1019C000E0E7236813F0020F18D0A3687BB1802BE7
:1019D0000DD0902B0BD0A02B09D0B02B07D0C02B53
:1019E00005D0D02B03D0E02B01D0F02B3ED1724A92
:1019F000536823F0F003A1680B435360236813F08E
:101A0000010F69D06368022B36D86368012B39D087
:101A1000022B4CD0022292FAA2F2674A10680222EC
:101A200092FAA2F2B2FA82F202F01F02012101FA46
:101A300002F2104200F0BA805F494A6822F00302C5
:101A400013434B60FFF762F906465B4B5B6803F09C
:101A50000C036268B3EB820F3ED0FFF757F9801B8F
:101A600041F288339842F0D903209DE740F2D22119
:101A7000504801F071FBBAE740F2D9214D4801F01E
:101A80006BFBC2E74FF4003292FAA2F24A4A1068A6
:101A90004FF4003292FAA2F2B2FA82F202F01F027E
:101AA000012101FA02F20242C6D101207CE74FF087
:101AB000007292FAA2F2404A10684FF0007292FA55
:101AC000A2F2B2FA82F202F01F02012101FA02F23E
:101AD0001042B1D1012067E7354B1B6803F00703C3
:101AE000AB420CD9324A136823F007032B4313602F
:101AF000136803F00703AB4201D0012054E72368C9
:101B000013F0040F14D0E3685BB1B3F5806F08D015
:101B1000B3F5A06F05D0B3F5C06F02D0B3F5E06F99
:101B200036D1254A536823F4E063E1680B435360E0
:101B3000236813F0080F15D023695BB1B3F5806FEC
:101B400008D0B3F5A06F05D0B3F5C06F02D0B3F5E0
:101B5000E06F23D1184A536823F46053216943EAA4
:101B6000C1035360FFF7CAFE134B5B6803F0F00339
:101B7000F02292FAA2F2B2FA82F2D3400F4AD35C78
:101B8000D8400F4B18600020FFF77EF800200BE7CD
:101B900040F21531074801F0DFFAC2E74FF4477110
:101BA000044801F0D9FAD5E7012070470120FBE68F
:101BB00000200240907600080010024000760008E5
:101BC00008000020014B1868704700BF0800002083
:101BD000F8B505460F4616461C4639E02CB1FFF70E
:101BE00095F8069BC01AA04232D32A68536823F0A6
:101BF000E00353606B68B3F5827F0BD0AB6AB3F53B
:101C0000005F14D0012385F85D30002385F85C3037
:101C1000032025E0AB68B3F5004F02D0B3F5806F29
:101C2000ECD12A68136823F040031360E6E72A68C2
:101C3000136823F4005313602A68136843F40053B5
:101C40001360DFE70123B34209D0B4F1FF3FC5D1F0
:101C50002B689B6837EA0303F4D00023F3E70020E6
:101C6000F8BDF0B583B007460C4615461E4602E0A7
:101C7000B6F1FF3F10D13A6893682340AB423FD0A2
:101C8000B4F5C06FF4D1002DF2D1137BDBB28DF827
:101C900007309DF80730EBE72EB1FFF737F8089BC8
:101CA000C01AB042E7D33A68536823F0E0035360A8
:101CB0007B68B3F5827F0BD0BB6AB3F5005F14D0AD
:101CC000012387F85D30002387F85C30032018E09B
:101CD000BB68B3F5004F02D0B3F5806FECD13A6822
:101CE000136823F040031360E6E73A68136823F4AF
:101CF000005313603A68136843F400531360DFE73E
:101D0000002003B0F0BD70B582B004460D46164603
:101D100000920B4600224FF4C051FFF7A2FFB8B962
:101D200000962B46002280212046FFF751FFB8B9CC
:101D300000962B4600224FF4C0612046FFF791FF2A
:101D4000034650B1236E43F020032366032304E0CF
:101D5000236E43F0200323660323184602B070BDB0
:101D6000236E43F0200323660323F6E7002800F0E8
:101D7000148110B504460368894A93420CD0A2F539
:101D80007842934208D002F58062934204D040F238
:101D90001B11844801F0E0F963681BB1B3F5827F41
:101DA00040F0B380A36833B1B3F5806F03D0B3F5CF
:101DB000004F40F0B080E368B3F5706F24D0B3F506
:101DC000606F21D0B3F5506F1ED0B3F5406F1BD0BC
:101DD000B3F5306F18D0B3F5206F15D0B3F5106F91
:101DE00012D0B3F5006F0FD0B3F5E06F0CD0B3F5A0
:101DF000C06F09D0B3F5A06F06D0B3F5806F03D0E4
:101E0000B3F5407F40F08D80A369B3F5007F04D027
:101E10001BB1B3F5802F40F08A80636B082B02D092
:101E2000002B40F08A80E3696BB1082B0BD0102B9C
:101E300009D0182B07D0202B05D0282B03D0302B0E
:101E400001D0382B7FD1236A13B1802B40F08180E1
:101E5000636A13B1102B40F08280636A43B923692F
:101E600013B1022B40F081806369012B00F2838063
:101E70000023A36294F85D30002B00F082800223DF
:101E800084F85D302268136823F040031360E36830
:101E9000B3F5E06F7BD90022B3F5706F04D0B3F5D2
:101EA000E06F01D00021A162216B21B9B3F5E06F91
:101EB00070D9022323636368A1680B4321690B4334
:101EC00061690B43A16901F400710B43E1690B43A4
:101ED000216A0B43A06A216803430B60638B03F004
:101EE0000403616A0B43616B0B43E1680B43216898
:101EF00013434B602268D36923F40063D36100204D
:101F00002066012384F85D3010BD4FF48E712548A2
:101F100001F022F946E740F21D11224801F01CF9B8
:101F200049E74FF48F711F4801F016F96CE740F252
:101F30001F111C4801F010F96FE74FF49071194818
:101F400001F00AF96FE740F22111164801F004F997
:101F500079E74FF49171134801F0FEF878E740F209
:101F60002311104801F0F8F877E74FF493710D480A
:101F700001F0F2F878E740F227110A4801F0ECF896
:101F800076E784F85C30204601F012F977E74FF4E9
:101F9000805281E7012323638DE70120704700BF52
:101FA00000300140C87600082DE9F04182B00446B7
:101FB0000D4617461E46836813B1B3F5004F19D17D
:101FC00094F85C30012B00F0D880012384F85C3059
:101FD000FEF79CFE804694F85D30DBB2012B0FD0FB
:101FE0000220012384F85D30002384F85C3002B0C5
:101FF000BDE8F0814FF4FF71614801F0ADF8DFE713
:10200000002D00F0B080002F00F0AF80032384F893
:102010005D3000232366A563A787E7872364A4F8C0
:102020004430A4F846302365E364A368B3F5004F59
:102030001BD023681A6812F0400F03D11A6842F0CF
:1020400040021A60E368B3F5E06F32D963681BB1F0
:10205000E38F9BB2012B13D1236835F8022BDA6092
:10206000E38F013B9BB2E3870AE02268136843F4E5
:1020700080431360DDE7002E79D0B6F1FF3F10D129
:10208000E38F9BB2002B59D023689A6812F0020F9D
:10209000F1D035F8022BDA60E38F013B9BB2E38786
:1020A000EEE7FEF733FEA0EB0800B042E8D30320D2
:1020B00097E763681BB1E38F9BB2012B22D1E38FBB
:1020C0009BB2012B08D9236835F8022BDA60E38F25
:1020D000023B9BB2E38715E023682A781A73E38FEB
:1020E000013B9BB2E38701350CE02A781A73E38F3A
:1020F000013B9BB2E387013504E0002E39D0B6F1F5
:10210000FF3F13D1E38F9BB2C3B123689A6812F0EB
:10211000020FF2D0E28F92B2012AE6D935F8022BF3
:10212000DA60E38F023B9BB2E387EBE7FEF7EEFD5D
:10213000A0EB0800B042E5D3032052E74246314607
:102140002046FFF7E0FD08B120232366A36833B9DA
:1021500001932368DA6801929B680193019B236EC7
:102160004BB900203DE701203BE7012039E7032080
:1021700037E7032035E7012033E7022037E700BFC8
:10218000C876000810B504460368214A934227D058
:10219000B3F1804F24D0A2F59432934220D002F5BF
:1021A000806293421CD002F50062934218D002F57F
:1021B0008062934214D002F59032934210D002F51F
:1021C000406293420CD002F58062934208D002F53F
:1021D0008062934204D04FF4A4710E4800F0BCFF1B
:1021E000022384F83D302368196A41F2111211422A
:1021F00008D1196A40F24442114203D11A6822F010
:1022000001021A60012384F83D30002010BD00BF98
:10221000002C01400077000810B5044603681B4AF3
:10222000934227D0B3F1804F24D0A2F59432934249
:1022300020D002F5806293421CD002F500629342E6
:1022400018D002F58062934214D002F59032934286
:1022500010D002F5406293420CD002F580629342A6
:1022600008D002F58062934204D040F25F11084822
:1022700000F072FF2268D36843F00103D360226844
:10228000136843F001031360002010BD002C0140CF
:1022900000770008704770477047704710B50446D4
:1022A00003681A6912F0020F11D0DA6812F0020FF7
:1022B0000DD06FF002021A610123037703689B6956
:1022C00013F0030F79D0FFF7E6FF0023237723688D
:1022D0001A6912F0040F12D0DA6812F0040F0ED04F
:1022E0006FF004021A610223237723689B6913F4B9
:1022F000407F68D02046FFF7CEFF00232377236876
:102300001A6912F0080F12D0DA6812F0080F0ED016
:102310006FF008021A61042323772368DB6913F046
:10232000030F57D02046FFF7B6FF0023237723681B
:102330001A6912F0100F12D0DA6812F0100F0ED0D6
:102340006FF010021A61082323772368DB6913F406
:10235000407F46D02046FFF79EFF00232377236867
:102360001A6912F0010F03D0DA6812F0010F3FD1A1
:1023700023681A6912F0800F03D0DA6812F0800F18
:102380003DD123681A6912F4807F03D0DA6812F015
:10239000800F3BD123681A6912F0400F03D0DA682E
:1023A00012F0400F39D123681A6912F0200F03D0C0
:1023B000DA6812F0200F37D110BDFFF76BFF20460F
:1023C000FFF76AFF81E72046FFF764FF2046FFF72B
:1023D00063FF92E72046FFF75DFF2046FFF75CFFB3
:1023E000A3E72046FFF756FF2046FFF755FFB4E767
:1023F0006FF001021A61204600F038FCB8E76FF078
:1024000080021A61204600F08CF9BAE76FF48072FE
:102410001A61204600F086F9BCE76FF040021A61AD
:102420002046FFF73AFFBEE76FF020021A61204610
:1024300000F076F9C0E7000003682C4A90420ED005
:10244000B0F1804F0BD0A2F59432904207D002F544
:102450008062904203D002F59632904203D123F07D
:1024600070034A681343214A90421AD0B0F1804F5A
:1024700017D0A2F59432904213D002F580629042B8
:102480000FD002F5963290420BD002F54062904296
:1024900007D002F58062904203D002F5806290423C
:1024A00003D123F44073CA68134323F080034A69BD
:1024B000134303608B68C3620B6883620B4B9842C3
:1024C0000FD003F5006398420BD003F540639842A8
:1024D00007D003F58063984203D003F580639842E8
:1024E00001D10B690363012343617047002C014054
:1024F000002866D010B504460368334A934226D0BC
:10250000B3F1804F23D0A2F5943293421FD002F54D
:10251000806293421BD002F50062934217D002F50D
:102520008062934213D002F5903293420FD002F5AD
:10253000406293420BD002F58062934207D002F5CD
:102540008062934203D0D521204800F005FEA368A5
:102550003BB1102B05D0202B03D0402B01D0602B9A
:102560001AD123692BB1B3F5807F02D0B3F5007F78
:1025700017D1A3690BB1802B18D194F83D30D3B19A
:10258000022384F83D30211D2068FFF755FF012309
:1025900084F83D30002010BDD6210C4800F0DCFD51
:1025A000DFE7D721094800F0D7FDE2E7D821074847
:1025B00000F0D2FDE1E784F83C30204600F0DEFE7A
:1025C000DEE70120704700BF002C014000770008C3
:1025D000F8B504460D4603684F4A93421FD0B3F145
:1025E000804F1CD0A2F59432934218D002F580623D
:1025F000934214D002F50062934210D002F580623B
:1026000093420CD002F59032934208D002F540621A
:10261000934204D040F21771404800F09DFD2B68B2
:102620006BB1102B0BD0202B09D0302B07D0402BB7
:1026300005D0502B03D0602B01D0702B5DD1AB683F
:10264000802B01D0002B5ED194F83C30012B60D060
:10265000012384F83C3023685E689F682E4A9342C9
:1026600003D002F50062934237D16B688BB3B3F5A8
:10267000801F2ED0B3F5001F2BD0B3F5401F28D0FC
:10268000B3F5800F25D0B3F5A00F22D0B3F5C00F5E
:102690001FD0B3F5E00F1CD0B3F5000F19D0B3F580
:1026A000100F16D0B3F5200F13D0B3F5300F10D0A4
:1026B000B3F5400F0DD0B3F5500F0AD0B3F5600F4E
:1026C00007D0B3F5700F04D04FF4E561134800F064
:1026D00043FD26F470066B681E4326F070062B68D7
:1026E0001E4327F08007AB683B4322685660226890
:1026F0009360002084F83C00F8BD4FF4E361074884
:1027000000F02AFD9BE740F21971044800F024FD17
:102710009AE70220F0E700BF002C0140387700085C
:1027200070477047704700002DE9F0478CB0594B57
:102730005A6942F400125A615A6902F40012019275
:10274000019A5A6942F400225A615A6902F400223D
:102750000292029A5A6942F480025A615A6902F45A
:1027600080020392039A5A6942F400325A615A690C
:1027700002F400320492049A5A6942F480225A61A7
:102780005A6902F480220592059A5A6942F480122D
:102790005A615B6903F480130693069BDFF804918A
:1027A00000224FF480714846FEF7F0FCDFF8F88015
:1027B00000224FF4B0414046FEF7E8FC364E0022BE
:1027C0004FF480413046FEF7E1FC4FF6FF6307937C
:1027D000032508950024099407A94846FEF764FBE1
:1027E00043F6FF7ACDF81CA00895099407A92B4859
:1027F000FEF75AFB40F2546307930895099407A922
:102800002748FEF751FB49F6FF7307930895099493
:1028100007A94FF09040FEF747FB40F2FF73079384
:102820000895099407A94046FEF73EFB4FF48073D4
:1028300007930127089709940A9407A94846FEF7C9
:1028400033FB4FF4B0430793089709940A9407A900
:102850004046FEF729FBCDF81CA00895099407A96E
:102860003046FEF721FB4FF4804307930897099405
:102870000A9407A93046FEF717FB4FF4004307936D
:102880000894099407A93046FEF70EFB0CB0BDE88A
:10289000F08700BF00100240000C0048000800480C
:1028A000001400480010004800040048F0B585B04E
:1028B0000A9CB4F90A50002D0DDBB4F90860002E13
:1028C00009DB0636B4F90470BE4204D80835B4F901
:1028D0000660B54201D905B0F0BDB4F90050B4F9B5
:1028E000026002EB420462000B9C0294B3FA83F391
:1028F0005B090193082300930623034C22443144CF
:10290000284400F09CF8E6E7F06F00081081518140
:10291000704708B543890933438102230381037B50
:1029200003B908BD084600F06FF9FAE7F0B583B0C7
:1029300005460F4614461E4614E0B4F90800B4F9E3
:102940000A10019600943B46FFF7B0FF0EE02B788B
:102950000A2B17D0B4F90A300833B4F90620934291
:102960001ED801352A78DAB10A2AE6D1238906333E
:102970001BB223810633B4F904209342E7D96B7864
:102980000A2BE4D031462046FFF7C3FF00F068FD74
:102990006B781844437813F0080FDBD00135D9E782
:1029A00003B0F0BD0CB470B59AB004460E461EAB31
:1029B00053F8042B0093642101A802F0B7FA0546EE
:1029C000234604F50572314601A8FFF7AFFF94F8DE
:1029D00020322BB928461AB0BDE8704002B07047CB
:1029E000204600F011F9F5E7002303E0C2180021AA
:1029F00011770133B3F5FC7FF8DB704700281DDB4E
:102A000000291BDB532819DC2F2917DC30B4CC102C
:102A1000542505FB040001F00701012404FA01F12B
:102A2000C9B22AB103441A7F1143197730BC7047E9
:102A300003441A7F22EA01011977F7E770472DE96D
:102A4000F84F83468A4691461E460A9FDDF82C8041
:102A5000002525E0E31D08E00C9BFFF7CFFF0134C4
:102A6000BC421CDA2346002CF4DBDB1006FB0353CC
:102A700019F80300614204F0070301F0070158BF91
:102A80004B4201229A40024005EB0B0004EB0A0185
:102A9000B8F1000FE0D0B2FA82F25209DCE701355A
:102AA000B54201DA0024DBE7BDE8F88F20F020030F
:102AB000072B01DD0120704710B582B00C4640F0B5
:102AC000200002A901F8010D4FF47A730122206859
:102AD000FFF76AFA002002B010BD30B583B030F0C5
:102AE0000D050CD10C4602A901F8010D4FF47A73C3
:102AF00001222068FFF758FA284603B030BD0225AE
:102B0000FAE7032810D810B582B00C4640F0040054
:102B100002A901F8010D4FF47A7301222068FFF732
:102B200043FA002002B010BD04207047072810D8D7
:102B300010B582B00C4640F0100002A901F8010D5A
:102B40004FF47A7301222068FFF72EFA002002B0BA
:102B500010BD0520704710F0800F10D110B582B065
:102B60000C4640F0800002A901F8010D4FF47A7381
:102B700001222068FFF718FA002002B010BD0320E0
:102B80007047F0B583B004460D4617461E460368ED
:102B90001A68136843F0400313600022818880683C
:102BA000FEF7F4FA0022A1892069FEF7EFFA642308
:102BB0000193019B013B0193002BFAD10122A189D2
:102BC0002069FEF7E3FA0022A18AA069FEF7DEFA87
:102BD00021460120FFF76AFF21463846FFF7BBFF79
:102BE00021463046FFF78DFF21469DF82000FFF774
:102BF0009DFF21460020FFF759FF21462846FFF799
:102C00006CFF002003B0F0BD10B582B00446002276
:102C100081888068FEF7BAFA0022A18AA069FEF7CF
:102C2000B5FA02A9802301F8013D4FF47A7301221D
:102C30002068FFF7B9F902A9402301F8023D4FF4DB
:102C40007A7301222068FFF7AFF90122A18AA069F7
:102C5000FEF79CFA4FF47A734FF4FC7204F11C01F6
:102C60002068FFF7A1F902B010BD00000268044B14
:102C70009A4200D07047034A136801331360F9E7A2
:102C800000100040FC01002010B50A4C2046FFF760
:102C900079FA2268084B1B680849A1FB03139B0CB7
:102CA000936200235362064A13602046FFF7B4FA8A
:102CB00010BD00BF980400200800002083DE1B43E5
:102CC000FC010020FEE7000000B591B0022306934E
:102CD00001220A9210220B920D9300230E934FF4BF
:102CE00060130F9306A8FEF76BFA08BB0F2301933E
:102CF00002210291002303934FF480620492059312
:102D000001A8FEF733FEC0B9FEF75CFF0D4BA3FB35
:102D100000308009FEF78EF80420FEF7A1F80022AB
:102D200011464FF0FF30FEF729F811B05DF804FBB3
:102D30004FF4AE710448FFF7C5FF4FF4B571024878
:102D4000FFF7C0FFD34D62107477000870B582B0F2
:102D5000FDF7BEFFFFF7B8FFFFF7E6FC00F0E2FA71
:102D600000F0FCF9FFF790FF904C914B23604FF47B
:102D70008046A6808F4BA3604FF40062A28123613E
:102D80004FF48052A282A3618B4D04F5057328682D
:102D90006968AA6807C3AA891A80032300930223DB
:102DA00040220C212046FFF7ECFE04F50575234672
:102DB0002A4601218148FFF7B9FD40F6B830FDF7FA
:102DC000ABFF2046FFF710FE23462A4600210846A7
:102DD000FFF79CFD002231467948FEF7D7F9AAE0BB
:102DE000724C04F5057523462A4601217548FFF704
:102DF0009DFD4FF47A70FDF78FFF2046FFF7F4FD3D
:102E000023462A4600210846FFF780FD012EE7D021
:102E10006B4C01224FF480412046FEF7B7F94FF486
:102E200080412046FEF79EF9012868D1664B1B6859
:102E3000DA6822F00102DA60644A14685A6A42F2DF
:102E4000107101FB0424DA6842F00102DA60DA68EA
:102E500022F00102DA605D4A1268596A42F210708B
:102E600000FB0212D96841F00101D96004F11001A0
:102E70008A42ECD3524C00224FF480412046FEF7A8
:102E800085F94FF480412046FEF76CF9002859D1AE
:102E90004FF400414A48FEF765F901286FD04A4BCC
:102EA0001B68DA6822F00102DA60484A14685A6A3C
:102EB00042F2107101FB0424DA6842F00102DA6088
:102EC0004FF400413E48FEF74DF9002840F088805D
:102ED0003D4B1A68D36823F00103D3603B4B1B685A
:102EE000516A42F2107000FB0313D16841F00101F6
:102EF000D1601B1B364A9342E2D9012571E02B4C6D
:102F000004F5057523462A4601213248FFF70EFDD8
:102F100000224FF480412A48FEF738F94FF47A70C6
:102F2000FDF7FAFE2046FFF75FFD23462A46002103
:102F30000846FFF7EBFC4FF480412148FEF712F9F9
:102F4000064663E7194C04F5057523462A46012118
:102F50002148FFF7EBFC00224FF480411848FEF7B0
:102F600015F94FF47A70FDF7D7FE2046FFF73CFDC8
:102F700023462A4600210846FFF7C8FCDBE70B4C36
:102F800004F5057523462A4601211448FFF7CEFCB7
:102F90004FF47A70FDF7C0FE2046FFF725FD23466B
:102FA0002A4600210846FFF7B1FCC4E710020020C2
:102FB0003404002000040048F075000884770008FD
:102FC000000C00489477000898040020FC010020C1
:102FD00020A10700C4770008F477000824780008CF
:102FE0000025002D75D1524B1A68D36823F00103D8
:102FF000D360504B1E68536A42F2107101FB0636D3
:10300000D36843F00103D3604FF400414A48FEF710
:10301000A9F8012815D1464B1A68D36823F001039B
:10302000D360444B1B68516A42F2107000FB0313DB
:10303000D16841F00101D1601B1B404A9342E3D9A2
:103040000125002D5CD13A4B1A68D36823F00103A7
:10305000D360384B1B68516A42F2107000FB0313B7
:10306000D16841F00101D1609B1B354CA4FB0324C6
:103070006409344D0094344A01212846FFF792FC3C
:103080004FF47A70FDF748FE2846FFF7ADFC2B465B
:1030900005F5057200210846FFF738FCB4F5FA7F04
:1030A0007FF649AF2C4605F5057523462A460121D2
:1030B0002648FFF73BFC4FF47A70FDF72DFE2046C3
:1030C000FFF792FC23462A4600210846FFF71EFC24
:1030D00031E71C4C04F5057523462A4601211C489E
:1030E000FFF724FC4FF47A70FDF716FE2046FFF739
:1030F0007BFC23462A4600210846FFF707FC1AE717
:10310000104C04F5057523462A4601211148FFF7A6
:103110000DFC4FF47A70FDF7FFFD2046FFF764FCCD
:1031200023462A4600210846FFF7F0FB03E700BFCD
:1031300098040020FC010020000C004820A107009A
:1031400009CB3D8D10020020B8780008D87800081F
:1031500044780008707800087047000008B51148EE
:10316000114B03604FF482734360002383604FF47C
:10317000E062C260036143614FF400728261102219
:10318000C2610362436283620722C262036308234F
:103190004363FEF7EBFD00B908BD47210348FFF785
:1031A00091FDF9E734040020003800400079000860
:1031B0000268114B9A4200D0704700B587B003F502
:1031C000EC33DA6942F48042DA61DB6903F480436C
:1031D0000093009B4FF420430193022302930023AA
:1031E0000393032304930523059301A90348FDF7E3
:1031F0005BFE07B05DF804FB0038004000040048A7
:1032000000B583B0214B9A6942F001029A619A6934
:1032100002F001020092009ADA6942F08052DA610B
:10322000DB6903F080530193019B0320FDF788FDC8
:10323000002211466FF00B00FDF7A0FD00221146A1
:103240006FF00A00FDF79AFD002211466FF00900A9
:10325000FDF794FD002211466FF00400FDF78EFD8E
:10326000002211466FF00300FDF788FD0022114691
:103270006FF00100FDF782FD002211464FF0FF3094
:10328000FDF77CFD03B05DF804FB00BF00100240B9
:103290007047FEE7FEE7FEE7FEE7704770477047BE
:1032A00008B5FDF727FDFDF7FAFD08BD08B5024892
:1032B000FEF7F4FF08BD00BF980400201549D1F8BF
:1032C000883043F47003C1F88830134B1A6842F019
:1032D00001021A605868114A02405A601A6822F0C6
:1032E000847222F480321A601A6822F480221A60F2
:1032F0005A6822F4FE025A60DA6A22F00F02DA6299
:10330000186B074A02401A6300229A604FF000636C
:103310008B60704700ED00E0001002400CC07FF8A9
:10332000CCFC00FF00B585B01148124B03603F2371
:1033300043600023836042F21072C2608361FFF732
:10334000D7F850B900230193039301A90848FFF768
:103350003FF938B905B05DF804FB3D210648FFF799
:10336000B1FCEFE744210448FFF7ACFCF2E700BFF3
:1033700098040020001000401079000802680E4BED
:103380009A4200D0704700B583B003F50033DA6984
:1033900042F01002DA61DB6903F010030193019B34
:1033A000002211463620FDF7E9FC3620FDF72CFD02
:1033B00003B05DF804FB00BF00100040DFF834D01C
:1033C000002103E00C4B5B58435004310B480C4B7D
:1033D00042189A42F6D30B4A02E0002342F8043B1B
:1033E000094B9A42F9D3FFF769FF00F011F8FFF794
:1033F000ADFCFEE700A00020407C0008000000209B
:10340000E0010020E0010020DC040020FEE70000D5
:1034100070B50D4E0D4CA41BA4100025A54209D17A
:103420000B4E0C4C03F0C8FDA41BA4100025A542B4
:1034300005D170BD56F8253098470135EEE756F8AE
:10344000253098470135F2E7387C0008387C0008C1
:10345000387C00083C7C0008D0F8EC007047000085
:10346000044B054A1B681B6A002B08BF1346D3F8A0
:10347000EC0070470C0000207000002082B001B901
:1034800001A942B14BB113780B601278101C18BF20
:10349000012002B070471046FBE76FF00100F8E72B
:1034A00002440346934200D1704703F8011BF9E739
:1034B0002DE9FF4755EC104B0D9FDDF830A0002D96
:1034C0000E4691461946B8BF22462B4627F02007E4
:1034D000BBBF05F100431D4600232D23B8BF144692
:1034E000462F0B7004D0452F00D10136022100E099
:1034F000032103AB019302AB00933246534645ECE4
:10350000104B01F0BDFD472F804602D119F0010F8D
:1035100026D0462F08EB060911D198F80030302B41
:103520000AD10022002320462946FDF7CDFA18B91A
:10353000C6F10106CAF80060DAF8003099440022AA
:10354000002320462946FDF7BFFA38B93022039BF5
:103550004B4505D2591C03911A70F8E7CDF80C9031
:10356000039B0E9AA3EB08034046136004B0BDE82A
:10357000F087F7B500290446BABF49422D232B2313
:10358000092904F8022B437020DD0DF107031F46C3
:103590000A2691FBF6F506FB15113031092D03F8CB
:1035A000011C03F1FF32294609DC3031023B02F8ED
:1035B000011CBB42224604D3101A03B0F0BD1346CF
:1035C000E7E713F8012B04F8012BF2E73023194445
:1035D0008370021DC170EFE72DE9F04F8DB00C46EE
:1035E000DDF8588016461F46054602F029FE03689E
:1035F00004931846FCF7ECFD00230A93D8F800303A
:103600000590073323F0070303F1080294F818A08C
:10361000D4F800B0C8F80020D3E90023C4E912238D
:10362000D4E9128929F000430793CDF818804FF0B0
:10363000FF32A74BDDE90601FDF778FA70BB4FF0CA
:10364000FF32A34BDDE90601FDF752FA30BB002241
:10365000002340464946FDF741FA10B12D2384F876
:1036600043309C4A9C4BBAF1470F8CBF904698461A
:1036700003232BF00402236122604FF0000900971E
:1036800033460BAA2146284600F0E6F9013040F007
:103690008D804FF0FF300DB0BDE8F08F42464B46B5
:1036A00040464946FDF742FA10B18C4A8C4BDAE7A6
:1036B00061684B1C4BF480620AA83ED1062363600C
:1036C0000023CDE9020309AB009349EC108B0DF107
:1036D00023032260CDF804A061682846FFF7E8FEC6
:1036E0000AF0DF03472B804609D1099BD81C02DB77
:1036F0006268934247DDAAF1020A5FFA8AFABAF1D8
:10370000650F099924D80139524604F150000991F6
:10371000FFF72FFF0A9A1318012A8146236102DC62
:103720002268D10701D5013323619DF82330002B96
:10373000A5D02D2384F84330A1E7BAF1670F00F03C
:103740007781BAF1470FBBD10029B9D10123B6E780
:10375000BAF1660F19D1002963680CDD216113B934
:103760002268D20702D501330B442361099BA3656C
:103770004FF00009D9E713B92268D00701D5023309
:10378000F3E70123F1E74FF0670ADDE909329342DD
:1037900005DB22682361D107E8D50133E5E7002B7B
:1037A000D4BFC3F1020301231344DEE723685A05A3
:1037B00007D42369424631462846B84701302BD109
:1037C00067E7BAF1650F40F2DC8000220023D4E9FC
:1037D0001201FDF779F9002833D00123414A31461F
:1037E0002846B84701303FF454AFDDE909239A4237
:1037F00002DB2368D8070FD5DDE9042331462846CC
:10380000B84701303FF445AF4FF0000804F11A0902
:103810000A9B013B434509DC23689B0700F10381B8
:10382000E0680B9B9842B8BF184634E701234A462C
:1038300031462846B84701303FF42BAF08F1010864
:10384000E6E7099B002B2BDC0123264A314628465C
:10385000B84701303FF41DAF099B23B90A9B13B948
:103860002368D907D8D5DDE9042331462846B8476F
:1038700001303FF40EAF4FF0000904F11A0A099B22
:103880005B424B4501DC0A9B94E7012352463146DB
:103890002846B84701303FF4FCAE09F10109EEE7D4
:1038A0000A9AA36D9A42A8BF1A46002A914607DDDC
:1038B0001346314642462846B84701303FF4E9AE48
:1038C00004F11A034FF0000B29EAE979069315E099
:1038D000FFFFEF7F2E7900082A790008367900086B
:1038E000327900083A7900080123069A31462846C1
:1038F000B84701303FF4CDAE0BF1010BD4F858A01E
:10390000AAEB09035B45EFDCDDE909239A42D044C9
:1039100015DB2368DA0712D40A9B0999A3EB0A0284
:10392000A3EB010A9245A8BF9246BAF1000F0EDC44
:103930004FF000082AEAEA7A04F11A0919E0DDE9F1
:10394000042331462846B8470130E5D1A1E6534665
:10395000424631462846B8470130E9D199E601236D
:103960004A4631462846B84701303FF492AE08F146
:103970000108DDE909239B1AA3EB0A034345EEDCAA
:103980004AE70A9A012A01DCDB073AD501234246BD
:1039900031462846B84701303FF47BAEDDE90423C9
:1039A00031462846B847013008F101083FF471AEAE
:1039B0000A9B002203F1FF3AD4E912010023FDF72C
:1039C00083F8C8B95346424631462846B8470130C5
:1039D0000ED15EE60123524631462846B8470130F3
:1039E0003FF457AE08F101080A9B013B4345F1DC67
:1039F0004B4604F15002DEE64FF0000804F11A0ACB
:103A0000F2E70123DFE701234A4631462846B8475B
:103A100001303FF43EAE08F10108E3680B9A9B1AAF
:103A20004345F0DCFCE64FF0000804F11909F4E727
:103A300000293FF48BAE0023CDE9020309AB0093CC
:103A400049EC108B2260CDF804A00DF12303284629
:103A5000FFF72EFD804648E62DE9F04791461F46C8
:103A60008A680B69DDF820809342B8BF1346C9F815
:103A7000003091F8432006460C4612B10133C9F8D4
:103A800000302368990642BFD9F800300233C9F8E4
:103A90000030256815F0060507D104F1190AE3681E
:103AA000D9F800209B1AAB4228DC94F843302268F6
:103AB000003318BF012392062DD404F14302394686
:103AC0003046C047013020D02368E568D9F800208F
:103AD00003F00603042B08BFAD1AA36822690CBFCC
:103AE00025EAE57500259342C4BF9B1AED184FF0F7
:103AF00000091A344D451AD1002008E0012352462E
:103B000039463046C047013003D14FF0FF30BDE8A1
:103B1000F0870135C3E7E1185A1C302081F84300D3
:103B2000224494F8451082F843100233C5E701237C
:103B3000224639463046C0470130E6D009F1010936
:103B4000D8E700002DE9F04301F1430C0C46097E53
:103B500085B06E291746064698460C9A00F0B38049
:103B600022D8632936D00AD8002900F0B980582914
:103B700000F0838004F1420584F8421032E06429A9
:103B800001D06929F6D120681368050603F1040104
:103B90002AD51B681160002B03DA2D225B4284F8C2
:103BA00043206F480A2239E0732900F09D8008D82D
:103BB0006F2920D07029DDD1236843F020032360D2
:103BC00003E0752917D07829D4D1782384F84530BB
:103BD000644855E01368191D1B68116004F1420523
:103BE00084F8423001238CE01B68116010F0400F14
:103BF00018BF1BB2CFE713682568181D1060280690
:103C000001D51B6802E06806FBD51B8854486F2964
:103C100014BF0A220822002184F843106568A560B9
:103C2000002DC0F29580216821F004012160002B55
:103C30003DD1002D40F08E806546082A0BD12368C7
:103C4000DB0708D5236962689A42DEBF302305F896
:103C5000013C05F1FF35ACEB05032361CDF8008095
:103C60003B4603AA21463046FFF7F6FE01304DD110
:103C70004FF0FF3005B0BDE8F083394884F84510B7
:103C8000136821681D1D1B6815600A060BD5CA073D
:103C900044BF41F0200121601BB9226822F02002BC
:103CA00022601022B7E74D0648BF9BB2EFE765469A
:103CB000B3FBF2F102FB1133C35C05F8013D0B4687
:103CC0000029F5D1B9E7136825686169181D1060EE
:103CD00028061B6801D5196002E06A06FBD5198029
:103CE000002323616546B9E71368191D11601D683B
:103CF000626800212846FCF773FA08B1401B606037
:103D000063682361002384F84330A7E723692A46C8
:103D100039463046C0470130AAD023689B0713D4E8
:103D2000E068039B9842B8BF1846A3E701234A46C0
:103D300039463046C04701309AD00135E368039ACE
:103D40009B1AAB42F2DCEBE7002504F11909F5E719
:103D5000002BACD1037884F8423004F142056CE7C3
:103D60003C7900084D7900082DE9F04F9A468B68A0
:103D700016465A1EB2F5AE7F87B083BF6FF4AE729F
:103D80009B180193002386BF40F25D138B60019363
:103D90000B6888464FF0000B43F4F06348F81C3B77
:103DA000CDE903BB07460C4645465A46D946CDF8F1
:103DB00008B0A16881B133681B78492B71D04DD808
:103DC000392B40D8312B80F088802D2B00F090804B
:103DD00015D82B2B00F08C80B9F1000F03D023688D
:103DE00023F480732360013A012A00F2EA804545FA
:103DF00000F2DC800126304607B0BDE8F08F2E2BA4
:103E000000F09F80302BE7D1206810F4807F64D0D1
:103E1000019B20F08000206009F101091BB1013BEA
:103E200001310193A160A368013BA36023690133C1
:103E300023617368013B002B736040F3AC803368EF
:103E400001333360B5E7452B00F08580462B6AD0FF
:103E5000412BC1D1012ABFD1022246E0652B7AD085
:103E600018D8542B66D011D84E2BB5D1002A46D184
:103E7000B9F1000F45D1216801F4E060B0F5E06FC1
:103E80003FD121F4F061216001222EE0592B1ED098
:103E9000612BDEE76E2BE9D015D8662B43D0692B5A
:103EA0009AD1BBF1000F38D1B9F1000F97D1216839
:103EB00001F4E060B0F5E06F95D121F4F06121608C
:103EC0004FF0010B11E0742B34D0792B84D1BBF16E
:103ED000070F81D14FF0080B07E012EB0B0F7FF4B7
:103EE0007BAF216821F4C07121602B7001359AE706
:103EF000216808067FF570AF21F08001F4E7022AFF
:103F000047D0BBF1010F03D0BBF1040F7FF464AFC6
:103F10000BF1010B5FFA8BFBE7E7BBF1030FF7D067
:103F2000BBF1050FF2E7BBF1020F7FF455AF4FF085
:103F3000030BDAE7BBF1060F7FF44EAF4FF0070B30
:103F4000D3E7216888057FF547AF21F42071216010
:103F5000CDF80890C9E7216801F4A060B0F5806F42
:103F600006D048057FF538AFB9F1000F3FF43BAFFD
:103F7000880558BF029821F4F06158BFA9EB0000F2
:103F800041F4C07158BFCDE9030521604FF000092D
:103F9000ABE70322A9E7D4F88031059231463846D1
:103FA0009847059A00283FF404AF15E7D4F87C3110
:103FB00015F8011D3246384698472369013B2361B5
:103FC00015E70BF1FF33062B0AD8BBF1020F68D9B6
:103FD000ABF1030B5FFA8BFBA5EB0B0B5D454BD1F4
:103FE0002368DA051FD55B0568D415F8011C236921
:103FF000652903F1FF3305F1FF3B23610DD045290E
:104000000BD0D4F87C31324638469847236915F8EE
:10401000021C013BA5F1020B2361D4F87C3132462E
:10402000384698475D46266816F010067AD12E70FD
:10403000236803F4C063B3F5806F42D1029BA9EB00
:1040400003035A42002B49D100224146384600F072
:10405000A3FE2568DAF8003015F0020F03F1040220
:1040600059EC108BCAF8002043D01B68C3E90089C3
:10407000E3680133E360BEE6D4F87C3115F8011D36
:104080003246384698472369013B2361A6E7D4F8B6
:104090007C3115F8011D3246384698472369013BAB
:1040A00023614545F3D8A5E6D4F87C3115F8011D08
:1040B0003246384698472369013B23614545F3D88A
:1040C00098E6039B002BBFD004990A2332460131A6
:1040D000384600F0EDFE039B049DC21A04F26F13F4
:1040E0009D4228BF04F5B7750F49284600F024F813
:1040F000AAE715F00405B8D11F6810EE102A4B4648
:1041000010EE100A4946FCF711FD28B1284600F0D0
:104110000DF887ED000AABE740464946FCF764FD21
:104120003860A5E7002666E65E7900089FED010A83
:10413000704700BF0000C07F0EB400B59CB01DAB3F
:10414000029006906FF000410948079104910949D7
:1041500053F8042B05910068019302A902F0A0FD19
:10416000029B00221A701CB05DF804EB03B070478C
:104170000C0000200802FFFF70B504460D4645EC18
:10418000104B164602F048FB51EC100B7EB1C5F304
:104190000A53C3F16B03002B09DD1B0503F17F55A7
:1041A000002405F5401522462B46FCF725FA70BD84
:1041B0002DE9F04F1F46A1B00023814638460E4638
:1041C00017921C9302F03AF880460068FCF700F85A
:1041D0004FF0000A04464FF0000B1B961B9B1A7809
:1041E0000D2A32D8092A36D2002A3ED000230D9358
:1041F0001B9D2B78302B40F0AC806B78582B01D076
:10420000782B67D10D9B01931CAB009302971DABDC
:10421000884A1BA9484601F03AFD10F007040646FB
:1042200005D0062C2BD1013500231B950D93179B30
:10423000002B40F09A850D9BE3B152460BF10043F1
:1042400043EC102B21B0BDE8F08F2B2A15D02D2A7E
:1042500004D0202ACAD101331B93BFE701220D925B
:104260005A1C1B925B78002BC2D1179B1B96002B0C
:1042700040F0798552465B46E2E70022EFE71C9A60
:104280003AB135211EA802F0BFFB1C99484602F046
:104290002CF8013C042C06D8DFE804F00A031417BC
:1042A0000A00DDE91EAB3007C1D54BF0004BBEE77D
:1042B000DDE91EA31D9A23F4801302F2334243EA80
:1042C000025BF0E7DFF870B1EDE76FF0004B4FF005
:1042D000FF3AE8E71B9B5A1C1B925B78302BF9D006
:1042E000002BA4D00123002506931B9B0893079560
:1042F00005950A221B980778A7F13003D9B209293E
:1043000029D92246D8F8001002F0D0FD002831D07B
:104310000020059C04903B460246652B01D0452BAE
:1043200014D124B910B9069B002B9ED000241B9EEB
:10433000731C1B9373782B2B78D02D2B70D04FF0E0
:10434000000CA3F13007092F7CD91B964FF0000E0B
:104350009AE00023C7E705990829DDBF079902FB0A
:104360000133079302FB0535059B013001330593AB
:104370001B90BFE71B9B1A191B92059A1B5D002A15
:1043800037D0059C0246A3F13001092913D9012138
:104390000491C2E71B9B5A1C1B925B780130302BA7
:1043A000F8D0A3F13102082A00F2E4841B9A0892A3
:1043B000024600200446B3F1300E00F1010112D094
:1043C0000A4400EB040C21460A278C4513D121181E
:1043D000082904F10104044419DC079B0A2101FBAC
:1043E00003E3079300211B9B581C1B905B78084636
:1043F000C9E70598D3E7082901F1010103DC079B10
:104400007B430793E1E71029D8BF7D43DDE7102CFC
:10441000DCBF0A2101FB05E5E4E70123049381E702
:104420004FF0010CB31C1B93B3788AE74FF0000CDC
:10443000F8E700BF647900080000F07F1B9B5F1C59
:104440001B975B78302BF9D0A3F13107082F3FF68B
:104450007DAFA3F1300E1B9B0A931B9B5F1C1B9728
:104460005B78A3F13008B8F1090F37D90A997F1AA0
:10447000082F44F61F6737DCBE45A8BFBE46BCF117
:10448000000F01D0CEF1000E002C51D100287FF496
:10449000CEAE069A002A7FF4CAAE049A002A7FF4B0
:1044A000E4AE4E2B27D021DC492B7FF4DEAEA049B1
:1044B0001BA801F01FFE00283FF4D7AE1B9B9D49AF
:1044C000013B1BA81B9301F015FE10B91B9B013388
:1044D0001B93DFF874B24FF0000AA8E60A2101FB33
:1044E0000E3EAEF1300EB8E7BE46C8E7692BDED00F
:1044F0006E2B7FF4BAAE90491BA801F0FBFD00289B
:104500003FF4B3AE1B9B1B78282B0ED11EAA8B4900
:104510001BA801F003FE052807D11F9BDDF878A03A
:1045200043F0FF4B4BF4E00B81E6DFF824B2D2E717
:10453000AEEB02030693059B0798002B08BF2346AA
:10454000102C0593A046A8BF4FF01008FBF7DAFF28
:10455000092C82468B4613DC069B002B3FF467AE8A
:10456000069B7ADD162B61DC754A02EBC30EDEE991
:10457000000152465B46FCF73FF882468B4656E602
:104580006F4B03EBC80353E91223FCF735F80646DB
:1045900028460F46FBF7B6FF02460B463046394623
:1045A000FBF774FE0F2C82468B46D5DD069BA4EBF1
:1045B00008089844B8F1000F40F3968018F00F03F4
:1045C0000AD05F4901EBC30152465B46D1E90001C5
:1045D000FCF712F882468B4638F00F0873D0B8F516
:1045E0009A7F47DD0024A046079405942223DFF834
:1045F00058B1C9F800304FF0000A079B002B3FF478
:1046000016AE1C99484601F070FE0599484601F027
:104610006CFE4146484601F068FE0799484601F0A5
:1046200064FE2146484601F060FE00E6069AC4F1A9
:1046300025039342BADB424DC4F10F0405EBC401DC
:1046400052465B46D1E90001FBF7D6FF069B1C1BD7
:1046500005EBC405D5E900238DE713F1160FA5DBA3
:10466000374AA2EBC302D2E9002350465946FCF771
:10467000EDF882E70023334E4FEA2818504659469A
:104680001D46B8F1010F21DC0BB182468B462D4B44
:10469000ABF1547B03EBC50552465B46D5E90001FF
:1046A000FBF7AAFF284B0A460B4028498B4282465B
:1046B00098D8A1F580118B4286BFDFF898B04FF0F3
:1046C000FF3A02F1547B0023049377E018F0010FC6
:1046D00006D006EBC503D3E90023FBF78DFF0123CA
:1046E00001354FEA6808CCE7EDD0C8F1000818F0B2
:1046F0000F020AD0124B03EBC20350465946D3E9CE
:104700000023FCF7A3F882468B465FEA2818DAD02C
:10471000B8F11F0F20DD0024A04607940594222342
:104720004FF0000A4FF0000BC9F8003065E700BFFA
:104730002F790008BC7A00083779000878790008DA
:10474000F07A0008C87A00080000F07F0000A07C22
:104750000000F8FFFFFFEF7F18F0100318BF6A2377
:10476000A04D0493504659460023B8F1000F00F3C2
:104770000A810BB182468B46049BBBB1CBF30A5333
:10478000C3F16B03002B594610DD1F2B40F307814B
:10479000342BDEBF203B4FF0FF3202FA03F34FF021
:1047A000000ACCBF4FF05C7B03EA010B0022002320
:1047B00050465946FCF788F90028ACD1079B009376
:1047C000059A08992346484601F0E1FD0790002824
:1047D0003FF408AF069A069B002AC3F10003A8BF66
:1047E00000230E93002422EAE2731693A046079B4F
:1047F0004846596801F045FD059000283FF4F6AEA3
:10480000079B1A69023203F10C0192000C3001F08F
:104810002DFD1EAA1DA94BEC10AB4846CDE908ABF7
:1048200002F070F81C9000283FF4E0AE01214846E9
:1048300001F039FE804600283FF4D8AE1D9E1E9A36
:10484000002EABBF0E9B169B169D0E9FACBFF7189C
:104850009D1B049BF61A1644634B013E9E42C2F117
:10486000360280F2AF809B1B1F2BA2EB03024FF09E
:10487000010100F39B8001FA03F30F9300230A93D5
:10488000BE18049BB74215441D443B46A8BF33469F
:10489000AB42A8BF2B46002BC2BFF61AED1AFF1A77
:1048A0000E9BBBB141461A46484601F09BFE80462E
:1048B00000283FF49BAE01461C9A484601F0FCFDDF
:1048C0000C9000283FF492AE1C99484601F00DFD73
:1048D0000C9B1C93002E7ADC069B002B08DD169A9D
:1048E0000599484601F07EFE059000283FF47EAE13
:1048F000002D08DD2A460599484601F0C1FE0590C5
:1049000000283FF473AE002F08DD41463A46484682
:1049100001F0B6FE804600283FF468AE059A1C9967
:10492000484601F01BFF044600283FF45FAEC36811
:104930000C930023C360414601F0F6FE002855DACF
:104940000C9BE3B9BAF1000F19D1CBF31303B3B940
:104950002BF000431B0D1B05B3F1D66F0FD9636914
:1049600013B92369012B0ADD21460122484601F0D3
:1049700087FE4146044601F0D7FE002867DC049B11
:10498000002B71D13DE618F0010F04D0D5E90023CA
:10499000FBF732FE01234FEA68080835E5E64FF0E1
:1049A000FF3202FA03F303EA0A0AFFE6C6F17F4682
:1049B00006F57F0606F57B46E23601FA06F30A9312
:1049C0000F915DE700230A9301230F9358E73246C6
:1049D0001C99484601F054FE1C9000287FF47CAFDF
:1049E00004E600BF9079000802FCFFFF5D4640F03E
:1049F00086800C9ACBF313032AB3AF4A934253D168
:104A0000049B5046D3B1AD4A2A40B2F1D46F4FF067
:104A1000FF3116D8120DC2F16B0301FA03F398426D
:104A200042D1A74B9D4202D101303FF4DFADA34BF1
:104A30002B4003F5801B4FF0000AA0E74FF0FF3337
:104A4000EDE70B46EBE77BBBBAF1000F2CD10499E5
:104A50009A4A5B46F1B102EA0B01B1F1D66F19DC5B
:104A6000B1F15C7F7FF75BAE964A0023CDE914324B
:104A700050465946DDE91423FBF7BEFD82468B46BE
:104A800000297FF4BEAD00287FF4BBAD2223C9F816
:104A90000030B6E51340A3F580136FEA135B6FEAAD
:104AA0000B5B4FF0FF3A6AE70A9B93B12B423FF44E
:104AB00066AF0C9B049A5046594673B1FFF75CFBF6
:104AC00002460B46DDE90801FBF7E0FB82468B4618
:104AD00055E70F9B13EA0A0FE9E7FFF74DFB024684
:104AE0000B46DDE90801FBF7CFFB002200238246DD
:104AF0008B46FBF7E9FF00287FF411AE3FE7414604
:104B0000204601F04EFF57EC106B00224FF080431F
:104B100010EE100A3946FBF7EBFF002877D00C9B0C
:104B2000002B4AD0684B0022CDE90A23664F0026AD
:104B3000624B2B400F930F9A644B9A4240F0CE8009
:104B4000DDE90823DDE90A01A5F1547B4BEC10AB4C
:104B5000CDE91423CDE90A0101F05EFEDDE90A0189
:104B600053EC102BFBF748FD52465B46FBF78EFBE0
:104B70000B465249564A1940914282465BD9099BDD
:104B800002F15472934203D1089B01333FF42EADDE
:104B9000DFF82CB14FF0FF3A1C99484601F0A5FB15
:104BA0000599484601F0A1FB4146484601F09DFBAE
:104BB0002146484601F099FB19E6BAF1000F1AD1D7
:104BC000CBF31303EBB900223F4B30463946FBF7DA
:104BD00085FFC8B93046394600223E4BFBF70CFD35
:104BE00006460F4607F1004318961993DDE918238E
:104BF000CDE90A239CE7BAF1010F02D1002D3FF461
:104C00008EAD0022344B8FE70026324FEAE7314B5E
:104C1000304639460022FBF7EFFC0C9B06460F4658
:104C200033B901F1004310901193DDE91023DFE760
:104C3000CDE91067F9E703F1547B049B002BABD15E
:104C40002BF000431B0D0F9A1B059A425D46A3D122
:104C500039463046FBF780FFFBF764FC0B46024603
:104C600039463046FBF710FB0C9B06460F4633B91E
:104C7000BAF1000F03D1CBF31305002D6DD00AA3B9
:104C8000D3E9002330463946FBF728FF00287FF49C
:104C9000B8AC07A3D3E9002330463946FBF73CFF05
:104CA00000283FF479AFACE49535A094FFFFDF3FD7
:104CB00035E5AF350000E03FFFFF0F000000F07F5B
:104CC000FFFFEF7F000050390000F03F0000E07F61
:104CD000FFFF9F7C0000E03F0000F0BF049B33B368
:104CE0000F9BB3F1D46F22D827A3D3E9002330461A
:104CF0003946FBF7FDFEA0B139463046FBF754FFBD
:104D0000002808BF0120FBF7FDFB0C9B06460F4661
:104D100003BB01F1004312901393DDE91223CDE9A7
:104D20000A230B9B0F9A03F1D6639B1A0B939DEDFD
:104D3000080BDDE90AAB01F06FFD504653EC102B78
:104D40005946FBF759FCDDE90823FBF79FFA824639
:104D50008B4672E7CDE91267DFE70DA3D3E90023A5
:104D6000FBF7BCFE9CE700230D93179A1B9B136077
:104D7000FFF761BA652B4FF000023FF44EAB012103
:104D800014460491FFF7CBBA0000C0FFFFFFDF41DC
:104D90009535A094FFFFCF3F054B1B6810B41B6AED
:104DA000044C002B08BF23465DF8044BFFF700BA04
:104DB0000C000020700000202DE9F0478046894655
:104DC00092461E460F463D46089815F8014BFEF7E1
:104DD00043FB2044437813F0080332D12D2C32D109
:104DE0007C78BD1C0122002E5DD0102E09D1302C04
:104DF00007D12B7803F0DF03582B4FD16C781026A6
:104E00000235002A14BF4FF000416FF00041002727
:104E1000B1FBF6FC384606FB1C1EA4F13003092B3F
:104E200017D81C46A64223DD7B1C07D084451CD323
:104E300001D1A64519DB00FB0640012715F8014BFF
:104E4000EBE72F46BFE72B2C04BFBD1C7C781A462E
:104E5000C9E7A4F14103192B01D8373CE2E7A4F1DB
:104E60006103192B04D8573CDCE74FF0FF37E5E727
:104E70007B1C08D12223C8F800300846BAF1000F85
:104E800007D1BDE8F08702B14042BAF1000FF8D077
:104E90000FB105F1FF39CAF80090F2E73024002E77
:104EA000AFD10826ADE7302CA3D00A26A9E7000031
:104EB00037B5064C064D2468246A002C08BF2C46E2
:104EC0000094FFF779FF03B030BD00BF0C00002055
:104ED0007000002030B5141E05469BB0184605DA58
:104EE0008B232B604FF0FF301BB030BD4FF40273AB
:104EF000ADF80C3014BF04F1FF3323460293059341
:104F00004FF6FF7300910491ADF80E3002461E9BE0
:104F10006946284601F0C4FE431CBCBF8B232B60AE
:104F2000002CE1D0009B00221A70DDE707B500934A
:104F300013460A46014603480068FFF7CBFF03B05B
:104F40005DF804FB0C00002049B1FF2A85BF8A23CD
:104F500003600A704FF0FF3098BF01207047084689
:104F600070472DE9F74F03690C69A3428046C0F2F0
:104F70008280013C01F114074FEA840C00F1140611
:104F800057F8245056F8240006EB0C03013507EBC4
:104F90000C090193B0FBF5F595B34FF0000A3846C4
:104FA000B646D34650F8042B93B205FB03A34FEA51
:104FB000134A9BB2ABEB0303120CDEF800B005FB07
:104FC00002A213FA8BF34FEA124A1FFA82FBDEF8B1
:104FD0000020CBEB124202EB23429BB243EA024396
:104FE00081454FEA224B4EF8043BDBD256F80C3099
:104FF00033B9019B043B9E421A4630D3C8F8104097
:10500000404601F091FB002825DB013530464FF08A
:10501000000C57F8042BD0F800E093B2ACEB03037C
:10502000120C13FA8EF3C2EB1E4202EB23429BB228
:1050300043EA0243B9454FEA224C40F8043BE8D228
:1050400056F8242006EB84032AB9043B9E421A46F4
:105050000BD3C8F81040284603B0BDE8F08F1268A3
:10506000043B002ACAD1013CC5E71268043B002A70
:10507000EFD1013CEAE70020EEE70000000000006D
:105080002DE9F04F57EC106B97B0456A0691044636
:105090000B921293DDF88080CDE900673DB91020B6
:1050A00001F0DCF86062C0E901550560C560636A23
:1050B000196851B15A684A60012393408B602046B9
:1050C00001F013F9636A00221A603B1EBBBF23F094
:1050D0000043019300230122ACBFC8F80030C8F898
:1050E0000020AF4BDDF8048033EA080314D1129A94
:1050F00042F20F731360009B23B9C8F3130000281A
:1051000000F04285219BDFF8ACB2002B00F0448513
:105110000BF1030300F03EBDDDE900670022002330
:1051200030463946FBF7D0FC814668B1129A01231C
:105130001360219B002B00F024859A4B219A03F1E8
:10514000FF3B136000F028BD14AA15A947EC106BB3
:10515000204601F0D7FBC8F30A550490002D7CD0FF
:10516000C7F3130343F07F5BB2464BF4401BA5F239
:10517000FF35CDF84C9000228B4B50465946FBF73B
:1051800083F881A3D3E90023FBF736FA80A3D3E9A0
:105190000023FBF77BF8064628460F46FBF7C2F9CB
:1051A0007DA3D3E90023FBF727FA02460B463046DE
:1051B0003946FBF76BF806460F46FBF7CDFC00229D
:1051C0008246002330463946FBF788FC48B15046FA
:1051D000FBF7A8F932463B46FBF776FC08B90AF123
:1051E000FF3ABAF1160F59D8704901EBCA01DDE94F
:1051F0000023D1E90001FBF78FFC002850D00AF111
:10520000FF3A00230F93149B5D1BB5F1010849BFC2
:10521000C5F10103002305934FF0000858BF059323
:10522000BAF1000F3EDB0023D044CDF838A007933D
:10523000069B092B00F29080052BC4BF043B06930C
:10524000069BA3F10203CCBF00250125032B00F22E
:105250008F80DFE803F07D7F3171DDE914531D4459
:1052600005F23240202813DDC0F14000009B08FA0F
:1052700000F805F2124023FA00F048EA0000FBF7BC
:1052800041F901238246A1F1F87B013D139372E7B6
:10529000009BC0F1200003FA00F0F0E70123B1E722
:1052A0000F90B0E7059BA3EB0A030593CAF1000337
:1052B000079300230E93BBE701230A930B9B002B5C
:1052C00059DD02939946666A00227260042202F157
:1052D00014009842716853D9204600F0D2FF636AE7
:1052E0003060B9F10E0FD3F800B000F2E680002D67
:1052F00000F0E3809DED007BBAF1000F8DED107B97
:1053000074DD2A4A0AF00F0302EBC30393ED007B1E
:105310004FEA2A16F0068DED087B65D5244BDDE9B2
:105320001001D3E90823FBF791FACDE9000106F05B
:105330000F0603251E4F4CE001230A930B9B534499
:1053400003F1010902934B46012BB8BF0123BAE7D1
:105350000023B2E70023F0E70125002306930A9516
:105360004FF0FF3302939946002212230B92AAE7D3
:1053700001230A93F4E70123029399461A46F5E7BD
:10538000013171605200A2E761436F63A787D23F8A
:10539000B3C8608B288AC63FFB799F501344D33F24
:1053A0000000F07F3B7900080000F83FF07A000829
:1053B000C87A0008C27A0008F10708D5DDE90801BB
:1053C000D7E90023FBF718F9CDE90801013576107C
:1053D0000837002EF0D1DDE90823DDE90001FBF7F5
:1053E00035FACDE900011AE00225A3E700F0A0801C
:1053F000CAF100069F4BA04F06F00F0203EBC20359
:10540000D3E90023DDE91001FBF7F6F8CDE900014F
:10541000361100230225002E7FD1002BE1D10F9BF6
:10542000002B00F08780DDE900670022934B3046B7
:105430003946FBF753FB00287CD0B9F1000F79D037
:10544000029B002B35DD0AF1FF3308933946002219
:105450008B4B3046FBF7D0F8CDE90001029F0135B8
:105460002846FBF75FF8DDE90023FBF7C5F80022CB
:10547000844BFAF70BFF0546A1F15076002F5DD162
:105480000022814BDDE90001FAF7FEFE2A46334691
:10549000CDE90001FBF740FB002840F088822A4656
:1054A00006F10043DDE90001FBF718FB002840F09E
:1054B0007C82DDE91023CDE90023159B002BC0F28F
:1054C0005081BAF10E0F00F34C816A4B03EBCA0313
:1054D00093ED007B0B9B002B8DED027B80F2D8803F
:1054E000B9F1000F00F3D48040F05E820022664BD9
:1054F00051EC170BFBF780F8DDE90023FBF702FB0B
:105500004F464E46002840F0348231230BF101050E
:105510008BF800300AF1010A2FE2F20705D5D7E92E
:105520000023FBF769F8013501237610083772E78D
:10553000022574E7CDF820A04F4691E74D4B03EBD1
:10554000C70353E902010A9B002B47D002460B46D2
:1055500000204E49FBF77AF92A463346FAF794FEC3
:10556000CDE90C015D46DDE90001FBF7F5FA0646E1
:10557000FAF7D8FF02460B46DDE90001FAF784FE90
:10558000303605F8016BDDE90C23CDE90001FBF7AE
:10559000A5FA002863D1DDE9002300203749FAF796
:1055A00073FEDDE90C23FBF799FA002840F0B78081
:1055B000A5EB0B039F427FF77CAF0022304BDDE968
:1055C0000C01FBF719F80022CDE90C012C4BDDE9A9
:1055D0000001FBF711F8CDE90001C4E72A46334684
:1055E000FBF70AF8CDE90C010BEB07055E46DDE998
:1055F0000001FBF7B1FA0746FAF794FF303702468D
:105600000B46DDE90001FAF73FFE06F8017BAE42EA
:10561000CDE900014FF0000226D11C4BDDE90C0161
:10562000FAF734FE02460B46DDE90001FBF774FA97
:10563000002874D1DDE90C2300201449FAF724FE78
:1056400002460B46DDE90001FBF748FA00283FF46B
:1056500030AF15F8013C302B05F1FF3202D0DDF8F8
:1056600020A04AE01546F4E7054BFAF7C5FFCDE95F
:105670000001BCE7F07A0008C87A00080000F03F9B
:105680000000244000001C40000014400000E03FE7
:10569000DDE900675D46DDE9022330463946FBF768
:1056A000D5F8FBF759FA8046FAF73CFFDDE902230B
:1056B000FAF7A2FF02460B463046394608F130069B
:1056C000FAF7E2FD05F8016BA5EB0B06B1450246C2
:1056D0000B4639D1FAF7DAFDDDE9022306460F461B
:1056E000FBF71AFAC8B9DDE9022330463946FBF761
:1056F000EBF910B118F0010F0FD10499204600F01A
:10570000F4FD0023129A2B700AF101031360219B10
:10571000002B00F041821D603EE2CDF820A015F87C
:10572000012C392A05F1FF3308D19B450AD1089B8A
:105730000133089330238BF800305B461A7801322E
:105740001A708CE71D46EAE700229B4BFAF754FFDC
:105750000022002306460F46FBF7B6F900289AD030
:10576000CBE70A9A002A00F08B80069A012A6EDCA9
:10577000139A002A67D003F23343079F059D059AC9
:1057800001211A4420460592984400F08CFE0646FA
:10579000002D0CDDB8F1000F09DD4545059A2B46BB
:1057A000A8BF4346D21A0592ED1AA8EB0308079B3F
:1057B000EBB10A9B002B67D08FB131463A462046A9
:1057C00000F010FF049A01460646204600F074FEE1
:1057D00004990890204600F088FD089B0493079BDD
:1057E000DA1B04D00499204600F0FCFE049001214D
:1057F000204600F058FE0E9B0746002B00F0D0819B
:105800001A460146204600F0EDFE069B012B074696
:1058100040DC009B002B39D1019BC3F31303002B09
:1058200036D1019B23F000431B0D1B052BB1059BBB
:105830000133059308F10108012307930E9B002B08
:105840002AD1012030E0149BC3F1360395E7079B72
:1058500009F1FF37BB42BFBF079B0797FA1A0E9BA0
:10586000BBBF9B180E93DF1B0027B9F1000FB5BF1C
:10587000059B059DA3EB09054B46B8BF00237EE7BA
:10588000079F059D0A9E83E7079AABE70023D4E7AD
:10589000009BD2E7002307933B6907EB830318695A
:1058A00000F0B3FDC0F12000404410F01F0047D0CD
:1058B000C0F12003042B3BDD059BC0F11C00034419
:1058C000059305448044059B002B05DD1A46049989
:1058D000204600F0D5FE0490B8F1000F05DD3946F2
:1058E0004246204600F0CCFE07460F9B53B3394694
:1058F000049800F019FF002824DA00230A220499F2
:10590000204600F009FD0A9B04900AF1FF3A002BA3
:1059100000F04D81002331460A22204600F0FCFCB5
:10592000029B002B06464FDC069B022B4CDD11E050
:10593000C9D0059A1C331A4405921D449844C2E705
:105940000346F6E7B9F1000F38DC069B022B35DD84
:10595000CDF80890029B63B939460522204600F035
:10596000DBFC01460746049800F0DEFE00283FF706
:10597000CCAD0B9B5D466FEA030A4FF00009394638
:10598000204600F0B2FC002E3FF4B7AEB9F1000F94
:1059900005D0B14503D04946204600F0A6FC31466B
:1059A000204600F0A2FCA8E600273E46E1E7DDF82D
:1059B00020A03E46A9E500BF000024400A9BCDF888
:1059C0000890002B00F0FA80002D05DD31462A46B4
:1059D000204600F055FE0646079B002B4CD0716810
:1059E000204600F04EFC326902320546920006F174
:1059F0000C010C3000F03AFC01222946204600F050
:105A00003FFE009BCDF814B003F00103B1460793AD
:105A1000064639460498FFF7A4FA4946054600F1C0
:105A20003008049800F080FE324600903946204647
:105A300000F094FEC368024603BB01460890049838
:105A400000F072FE089A034611462046089300F0C3
:105A50004CFC089BA3B9069A92B9079A82B9B8F18F
:105A6000390F29D0009B002B01DD05F13108059B82
:105A70005D1C83F8008082E73046C2E70123E3E73C
:105A8000009A002A04DB25D1069A1ABB079A0ABBA2
:105A9000002BECDD01220499204600F0F1FD39468F
:105AA000049000F041FE002803DCE0D118F0010F63
:105AB000DDD0B8F1390FD8D1059B059A5D1C39238B
:105AC000137015F8013C392B05F1FF324FD001332B
:105AD000137054E7059A002B02F1010506DDB8F1B9
